:100000000EC01DC01CC01BC01AC019C018C017C02C
:1000100016C015C014C013C012C011C010C01124E6
:100020001FBECFE5D2E0DEBFCDBF20E0A0E6B0E04E
:1000300001C01D92A136B207E1F702D0C6C0E0CFE1
:1000400080E090E0ACD081708093600004B600FE48
:100050000AC081E084BF60916000682760936000FF
:1000600080E090E0A4D0B89AB99ABA9ABB9ABC9AA8
:1000700041E032E024E098E080E1509160005130AE
:1000800009F046C058B3582758BB59E969E971E0EF
:10009000515060407040E1F7000058B3582758BBFA
:1000A00058B3592758BB59E969E971E0515060408C
:1000B0007040E1F7000058B3592758BB58B3522796
:1000C00058BB59E969E971E0515060407040E1F76F
:1000D000000058B3522758BB58B3532758BB59E9AF
:1000E00069E971E0515060407040E1F7000058B399
:1000F000532758BB58B3542758BB59E969E971E0F5
:10010000515060407040E1F7000058B3542745C09B
:1001100058B3542758BB59E969E971E05150604020
:100120007040E1F7000058B3542758BB58B3532729
:1001300058BB59E969E971E0515060407040E1F7FE
:10014000000058B3532758BB58B3522758BB59E93E
:1001500069E971E0515060407040E1F7000058B328
:10016000522758BB58B3592758BB59E969E971E080
:10017000515060407040E1F7000058B3592758BB18
:1001800058B3582758BB59E969E971E051506040AC
:100190007040E1F7000058B3582758BB6ECFE19983
:1001A000FECF9FBB8EBBE09A99278DB30895262F73
:1001B000E199FECF1CBA9FBB8EBB2DBB0FB6F89446
:0E01C000E29AE19A0FBE01960895F894FFCFDF
:00000001FF
