:100000000EC015C014C013C012C011C010C00FC064
:100010000EC00DC00CC00BC00AC009C008C011241E
:100020001FBECFE5D2E0DEBFCDBF3CD078C0E8CF69
:1000300082E3B99AE9EFF0E03197F1F700C00000F0
:10004000B998E9EFF0E03197F1F700C00000815076
:1000500081F7089587EA91E60197F1F700C0000063
:100060000895E6DF87EA91E60197F1F700C0000006
:100070000895DEDFDDDFDCDF87EA91E60197F1F747
:1000800000C00000089587EA91E60197F1F700C0EB
:10009000000087EA91E60197F1F700C0000008959B
:1000A000F2DFF1CFB99ADDDFDCDFDBDFECDFD9DFB8
:1000B000E0DFE9DFDEDFD5DFDCDFD3DFE4DFD1DF68
:1000C000D0DFCFDFCEDFDFDFCCDFD3DFDCDFE8DF89
:1000D000D0DFC7DFCEDFD7DFCCDFC3DFD4DFC9DFC0
:1000E000C8DFC7DFD0DFBDDFC4DFC3DFBADFCBDFF0
:1000F000C0DFB7DFBEDFC7DFB4DFB3DFC4DFB9DF28
:10010000B0DFC1DFAEDFB5DFBEDF2FE38DE093E010
:10011000215080409040E1F700C00000C4CFF89427
:02012000FFCF0F
:00000001FF
